<!doctype html>
<html lang="en-US">
  <head>
    <meta charset="utf-8">
    <meta http-equiv="X-UA-Compatible" content="IE=edge">

<!-- Begin Jekyll SEO tag v2.5.0 -->
<title>以太坊中区块链数据结构 | 有组织在！</title>
<meta name="generator" content="Jekyll v3.8.5" />
<meta property="og:title" content="以太坊中区块链数据结构" />
<meta property="og:locale" content="en_US" />
<meta name="description" content="以太坊 以太坊是一个基于交易的状态机。全球就这一台单机（但分布存在），以太坊中每个区块就对应一个区块，每产生一个区块，以太坊中的状态就会转换到下一个状态。这台单机主要由区块链组成，区块链上保存着状态和交易。 从创世区块开始，无尽的交易不断的刷新着系统当前状态，每产生一个区块就对当前状态做一次存储，随后存入区块头中。 以太坊中区块的结构 区块是由三大部分组成：区块头，叔块，交易列表。如下图所示。 区块头由15个字段组成。 叔块其实就是孤块，因以太坊出块速度很快平均十几秒就会打包生成一个块，所以矿工挖矿的竞争性很高，可能同时产出几个都合法的区块，以太坊为了一些安全性起见，允许竞争块也挂在到主链上，同时给与挖出这些孤块的矿工们少许奖励增加工作的公平性。这些孤块最多允许6个高度，这也是6个区块确认主链说法的来源。 交易列表，存储的是本区块中所有的交易内容。 看一下一个实际的区块信息： &quot;blocks&quot; : [ { &quot;blockHeader&quot; : { &quot;bloom&quot; : &quot;0x00000000000000000000000000000000000000000000000000000000000000000000000000000000000000000000000000000000000000000000000000000000000000000000000000000000000000000000000000000000000000000000000000000000000000000000000000000000000000000000000000000000000000000000000000000000000000000000000000000000000000000000000000000000000000000000000000000000000000000000000000000000000000000000000000000000000000000000000000000000000000000000000000000000000000000000000000000000000000000000000000000000000000000000000000000000&quot;, &quot;coinbase&quot; : &quot;0x3535353535353535353535353535353535353535&quot;, &quot;difficulty&quot; : &quot;0x020000&quot;, &quot;extraData&quot; : &quot;&quot;, &quot;gasLimit&quot; : &quot;0x05f5e100&quot;, &quot;gasUsed&quot; : &quot;0x014fa1&quot;, &quot;hash&quot; : &quot;0x39f4659b079e257df8fd7e699528531e97a6b8a442ca0d11200c4a2f7433c483&quot;, &quot;mixHash&quot; : &quot;0x7379f33af4ae2db7e293f808a165135d0b1a99572cc96fb9f7d17ef64a751969&quot;, &quot;nonce&quot; : &quot;0x8e08d7aabeee8773&quot;, &quot;number&quot; : &quot;0x01&quot;, &quot;parentHash&quot; : &quot;0xadbef3bf0b3b7b14f6e7b1a45d240ecc863543a279a86c23f60170e8e7a6bcc3&quot;, &quot;receiptTrie&quot; : &quot;0xb21660268480338c0cd0613358315359b619bd527d5850949c4863cddaec316b&quot;, &quot;stateRoot&quot; : &quot;0xde4ce9b5b2f88ab1680962c64281224b1743bdf94bd6a9e390ea779ff616c1f7&quot;, &quot;timestamp&quot; : &quot;0x03e8&quot;, &quot;transactionsTrie&quot; : &quot;0x56445ba866f3e41851154fb8700dcec8556a178f1833021e030b8a47b494769d&quot;, &quot;uncleHash&quot; : &quot;0x1dcc4de8dec75d7aab85b567b6ccd41ad312451b948a7413f0a142fd40d49347&quot; }, &quot;rlp&quot; : &quot;0xf90308f901f9a0adbef3bf0b3b7b14f6e7b1a45d240ecc863543a279a86c23f60170e8e7a6bcc3a01dcc4de8dec75d7aab85b567b6ccd41ad312451b948a7413f0a142fd40d49347943535353535353535353535353535353535353535a0de4ce9b5b2f88ab1680962c64281224b1743bdf94bd6a9e390ea779ff616c1f7a056445ba866f3e41851154fb8700dcec8556a178f1833021e030b8a47b494769da0b21660268480338c0cd0613358315359b619bd527d5850949c4863cddaec316bb901000000000000000000000000000000000000000000000000000000000000000000000000000000000000000000000000000000000000000000000000000000000000000000000000000000000000000000000000000000000000000000000000000000000000000000000000000000000000000000000000000000000000000000000000000000000000000000000000000000000000000000000000000000000000000000000000000000000000000000000000000000000000000000000000000000000000000000000000000000000000000000000000000000000000000000000000000000000000000000000000000000000000000000000000000000000083020000018405f5e10083014fa18203e880a07379f33af4ae2db7e293f808a165135d0b1a99572cc96fb9f7d17ef64a751969888e08d7aabeee8773f90108f90105460183030d4094c305c901078781c232a2a521c2af7980f8385ee980b8a430c8d1da000000000000000000000000000000000000000000000000000000000000002000000000000000000000000000000000000000000000000000000000000000600000000000000000000000000000000000000000000000000000000000000001000000000000000000000000000000000000000000000000000000000000000230644e72e131a029b85045b68181585d2833e84879b9709143e1f593f00000001ba021a28cc82b40931239f8653ffa5300e1a506c0ef7fb79a663772cafe6558ab44a075af23441f7f176a2770af41142c77b671391209b15d59144e7a1332179b5e14c0&quot;, &quot;transactions&quot; : [ { &quot;data&quot; : &quot;0x30c8d1da000000000000000000000000000000000000000000000000000000000000002000000000000000000000000000000000000000000000000000000000000000600000000000000000000000000000000000000000000000000000000000000001000000000000000000000000000000000000000000000000000000000000000230644e72e131a029b85045b68181585d2833e84879b9709143e1f593f0000000&quot;, &quot;gasLimit&quot; : &quot;0x030d40&quot;, &quot;gasPrice&quot; : &quot;0x01&quot;, &quot;nonce&quot; : &quot;0x46&quot;, &quot;r&quot; : &quot;0x21a28cc82b40931239f8653ffa5300e1a506c0ef7fb79a663772cafe6558ab44&quot;, &quot;s&quot; : &quot;0x75af23441f7f176a2770af41142c77b671391209b15d59144e7a1332179b5e14&quot;, &quot;to&quot; : &quot;0xc305c901078781c232a2a521c2af7980f8385ee9&quot;, &quot;v&quot; : &quot;0x1b&quot;, &quot;value&quot; : &quot;0x00&quot; } ], &quot;uncleHeaders&quot; : [] } ] 区块头结构 但是以太坊中每个区块的结构和比特币中每个区块的结构却不同，一个以太坊中区块的区块头(Block Header)结构如下图所示： 区块头中每个字段的意义如下： 名称 类型 意义 parentHash common.Hash 父区块的哈希值 UncleHash common.Hash 所有叔父区块列表的哈希值 Coinbase common.Address 打包该区块的矿工的地址，用于接收矿工费 Root common.Hash 状态树的根哈希值 TxHash common.Hash 交易树的根哈希值 ReceiptHash common.Hash 收据树的根哈希值 Bloom Bloom 交易收据日志组成的Bloom过滤器 Difficulty *Big.Int 本区块的难度 Number *Big.Int 本区块块号，区块号从0号开始算起 GasLimit uint64 本区块的Gas使用上限 GasUsed uint64 本区块中所有交易使用的Gas之和 Time *big.Int 区块产生的unix时间戳 Extra []byte 区块的附加数据 MixDigest common.Hash 哈希值，与Nonce的组合用于工作量计算 Nonce BlockNonce 区块产生时的随机值 和比特币中的区块链一样，以太坊中的区块链仍然使用了parentHash连接前一个区块，最终所有的区块形成了区块链。 这其中比较重要的三个字段是Root、TxHash和ReceiptHash三个哈希值。其中Root表示以太坊网络中全部有过转账交易的账户形成的Merkle partial Tree(MPT)的根哈希值，而TxHash是本区块中所有交易形成的merkle tree的根哈希值，ReceiptHash是本区块中所有收据信息构成的merkle tree 的哈希值。这其中涉及到的Merkle tree的相关概念可以参考比特币区块链中的数据结构，里面有merkle tree数据结构的介绍。接下来重点介绍Merkle Partial Tree。 Merkle Patricia Tree（默克尔-帕特里夏树） 比特币是基于交易的分布式账本，而以太坊是基于账户的分布式账本，相比于比特币，以太坊设计的更加复杂。以太坊中会对所有有过转账交易的账户都会建立一个用户状态树，每个运行以太坊客户端的节点都会在本地维护一个用户状态树，当有新的区块打包到区块链上之后，所有的以太坊节点(挖出区块的节点除外)的就会执行最新区块中的交易，对本地用户的状态树进行维护，得到新的用户状态树。用户状态树的信息并不保存在区块中，区块中仅仅保存了最新的状态树组成的根哈希值。 在以太坊中账户的地址是160bits的组织形式，即20字节，一般用16进制表示，用40位16进制的数据表示。基于账户的模式，只要使用地址和相应状态的映射即可。关于MPT的介绍，可以参见以太坊MPT原理，对于MPT的解释比较到位。 每次发布新的区块链时，每个存有状态树的节点就会根据区块中的交易更新对应的账户树，更新完毕之后生成新的账户树的根哈希值，最后类似于生成Merkle 树一样，根据修改后的账户状态获取账户树的根哈希值，这样就能保证每个节点中账户状态的一致性。状态树的变化如下图所示。 参考阅读： 以太坊的数据结构 以太坊MPT原理 阅读更多" />
<meta property="og:description" content="以太坊 以太坊是一个基于交易的状态机。全球就这一台单机（但分布存在），以太坊中每个区块就对应一个区块，每产生一个区块，以太坊中的状态就会转换到下一个状态。这台单机主要由区块链组成，区块链上保存着状态和交易。 从创世区块开始，无尽的交易不断的刷新着系统当前状态，每产生一个区块就对当前状态做一次存储，随后存入区块头中。 以太坊中区块的结构 区块是由三大部分组成：区块头，叔块，交易列表。如下图所示。 区块头由15个字段组成。 叔块其实就是孤块，因以太坊出块速度很快平均十几秒就会打包生成一个块，所以矿工挖矿的竞争性很高，可能同时产出几个都合法的区块，以太坊为了一些安全性起见，允许竞争块也挂在到主链上，同时给与挖出这些孤块的矿工们少许奖励增加工作的公平性。这些孤块最多允许6个高度，这也是6个区块确认主链说法的来源。 交易列表，存储的是本区块中所有的交易内容。 看一下一个实际的区块信息： &quot;blocks&quot; : [ { &quot;blockHeader&quot; : { &quot;bloom&quot; : &quot;0x00000000000000000000000000000000000000000000000000000000000000000000000000000000000000000000000000000000000000000000000000000000000000000000000000000000000000000000000000000000000000000000000000000000000000000000000000000000000000000000000000000000000000000000000000000000000000000000000000000000000000000000000000000000000000000000000000000000000000000000000000000000000000000000000000000000000000000000000000000000000000000000000000000000000000000000000000000000000000000000000000000000000000000000000000000000&quot;, &quot;coinbase&quot; : &quot;0x3535353535353535353535353535353535353535&quot;, &quot;difficulty&quot; : &quot;0x020000&quot;, &quot;extraData&quot; : &quot;&quot;, &quot;gasLimit&quot; : &quot;0x05f5e100&quot;, &quot;gasUsed&quot; : &quot;0x014fa1&quot;, &quot;hash&quot; : &quot;0x39f4659b079e257df8fd7e699528531e97a6b8a442ca0d11200c4a2f7433c483&quot;, &quot;mixHash&quot; : &quot;0x7379f33af4ae2db7e293f808a165135d0b1a99572cc96fb9f7d17ef64a751969&quot;, &quot;nonce&quot; : &quot;0x8e08d7aabeee8773&quot;, &quot;number&quot; : &quot;0x01&quot;, &quot;parentHash&quot; : &quot;0xadbef3bf0b3b7b14f6e7b1a45d240ecc863543a279a86c23f60170e8e7a6bcc3&quot;, &quot;receiptTrie&quot; : &quot;0xb21660268480338c0cd0613358315359b619bd527d5850949c4863cddaec316b&quot;, &quot;stateRoot&quot; : &quot;0xde4ce9b5b2f88ab1680962c64281224b1743bdf94bd6a9e390ea779ff616c1f7&quot;, &quot;timestamp&quot; : &quot;0x03e8&quot;, &quot;transactionsTrie&quot; : &quot;0x56445ba866f3e41851154fb8700dcec8556a178f1833021e030b8a47b494769d&quot;, &quot;uncleHash&quot; : &quot;0x1dcc4de8dec75d7aab85b567b6ccd41ad312451b948a7413f0a142fd40d49347&quot; }, &quot;rlp&quot; : &quot;0xf90308f901f9a0adbef3bf0b3b7b14f6e7b1a45d240ecc863543a279a86c23f60170e8e7a6bcc3a01dcc4de8dec75d7aab85b567b6ccd41ad312451b948a7413f0a142fd40d49347943535353535353535353535353535353535353535a0de4ce9b5b2f88ab1680962c64281224b1743bdf94bd6a9e390ea779ff616c1f7a056445ba866f3e41851154fb8700dcec8556a178f1833021e030b8a47b494769da0b21660268480338c0cd0613358315359b619bd527d5850949c4863cddaec316bb901000000000000000000000000000000000000000000000000000000000000000000000000000000000000000000000000000000000000000000000000000000000000000000000000000000000000000000000000000000000000000000000000000000000000000000000000000000000000000000000000000000000000000000000000000000000000000000000000000000000000000000000000000000000000000000000000000000000000000000000000000000000000000000000000000000000000000000000000000000000000000000000000000000000000000000000000000000000000000000000000000000000000000000000000000000000083020000018405f5e10083014fa18203e880a07379f33af4ae2db7e293f808a165135d0b1a99572cc96fb9f7d17ef64a751969888e08d7aabeee8773f90108f90105460183030d4094c305c901078781c232a2a521c2af7980f8385ee980b8a430c8d1da000000000000000000000000000000000000000000000000000000000000002000000000000000000000000000000000000000000000000000000000000000600000000000000000000000000000000000000000000000000000000000000001000000000000000000000000000000000000000000000000000000000000000230644e72e131a029b85045b68181585d2833e84879b9709143e1f593f00000001ba021a28cc82b40931239f8653ffa5300e1a506c0ef7fb79a663772cafe6558ab44a075af23441f7f176a2770af41142c77b671391209b15d59144e7a1332179b5e14c0&quot;, &quot;transactions&quot; : [ { &quot;data&quot; : &quot;0x30c8d1da000000000000000000000000000000000000000000000000000000000000002000000000000000000000000000000000000000000000000000000000000000600000000000000000000000000000000000000000000000000000000000000001000000000000000000000000000000000000000000000000000000000000000230644e72e131a029b85045b68181585d2833e84879b9709143e1f593f0000000&quot;, &quot;gasLimit&quot; : &quot;0x030d40&quot;, &quot;gasPrice&quot; : &quot;0x01&quot;, &quot;nonce&quot; : &quot;0x46&quot;, &quot;r&quot; : &quot;0x21a28cc82b40931239f8653ffa5300e1a506c0ef7fb79a663772cafe6558ab44&quot;, &quot;s&quot; : &quot;0x75af23441f7f176a2770af41142c77b671391209b15d59144e7a1332179b5e14&quot;, &quot;to&quot; : &quot;0xc305c901078781c232a2a521c2af7980f8385ee9&quot;, &quot;v&quot; : &quot;0x1b&quot;, &quot;value&quot; : &quot;0x00&quot; } ], &quot;uncleHeaders&quot; : [] } ] 区块头结构 但是以太坊中每个区块的结构和比特币中每个区块的结构却不同，一个以太坊中区块的区块头(Block Header)结构如下图所示： 区块头中每个字段的意义如下： 名称 类型 意义 parentHash common.Hash 父区块的哈希值 UncleHash common.Hash 所有叔父区块列表的哈希值 Coinbase common.Address 打包该区块的矿工的地址，用于接收矿工费 Root common.Hash 状态树的根哈希值 TxHash common.Hash 交易树的根哈希值 ReceiptHash common.Hash 收据树的根哈希值 Bloom Bloom 交易收据日志组成的Bloom过滤器 Difficulty *Big.Int 本区块的难度 Number *Big.Int 本区块块号，区块号从0号开始算起 GasLimit uint64 本区块的Gas使用上限 GasUsed uint64 本区块中所有交易使用的Gas之和 Time *big.Int 区块产生的unix时间戳 Extra []byte 区块的附加数据 MixDigest common.Hash 哈希值，与Nonce的组合用于工作量计算 Nonce BlockNonce 区块产生时的随机值 和比特币中的区块链一样，以太坊中的区块链仍然使用了parentHash连接前一个区块，最终所有的区块形成了区块链。 这其中比较重要的三个字段是Root、TxHash和ReceiptHash三个哈希值。其中Root表示以太坊网络中全部有过转账交易的账户形成的Merkle partial Tree(MPT)的根哈希值，而TxHash是本区块中所有交易形成的merkle tree的根哈希值，ReceiptHash是本区块中所有收据信息构成的merkle tree 的哈希值。这其中涉及到的Merkle tree的相关概念可以参考比特币区块链中的数据结构，里面有merkle tree数据结构的介绍。接下来重点介绍Merkle Partial Tree。 Merkle Patricia Tree（默克尔-帕特里夏树） 比特币是基于交易的分布式账本，而以太坊是基于账户的分布式账本，相比于比特币，以太坊设计的更加复杂。以太坊中会对所有有过转账交易的账户都会建立一个用户状态树，每个运行以太坊客户端的节点都会在本地维护一个用户状态树，当有新的区块打包到区块链上之后，所有的以太坊节点(挖出区块的节点除外)的就会执行最新区块中的交易，对本地用户的状态树进行维护，得到新的用户状态树。用户状态树的信息并不保存在区块中，区块中仅仅保存了最新的状态树组成的根哈希值。 在以太坊中账户的地址是160bits的组织形式，即20字节，一般用16进制表示，用40位16进制的数据表示。基于账户的模式，只要使用地址和相应状态的映射即可。关于MPT的介绍，可以参见以太坊MPT原理，对于MPT的解释比较到位。 每次发布新的区块链时，每个存有状态树的节点就会根据区块中的交易更新对应的账户树，更新完毕之后生成新的账户树的根哈希值，最后类似于生成Merkle 树一样，根据修改后的账户状态获取账户树的根哈希值，这样就能保证每个节点中账户状态的一致性。状态树的变化如下图所示。 参考阅读： 以太坊的数据结构 以太坊MPT原理 阅读更多" />
<link rel="canonical" href="http://0.0.0.0:4000/2018/08/02/%E4%BB%A5%E5%A4%AA%E5%9D%8A%E4%B8%AD%E5%8C%BA%E5%9D%97%E9%93%BE%E6%95%B0%E6%8D%AE%E7%BB%93%E6%9E%84.html" />
<meta property="og:url" content="http://0.0.0.0:4000/2018/08/02/%E4%BB%A5%E5%A4%AA%E5%9D%8A%E4%B8%AD%E5%8C%BA%E5%9D%97%E9%93%BE%E6%95%B0%E6%8D%AE%E7%BB%93%E6%9E%84.html" />
<meta property="og:site_name" content="有组织在！" />
<meta property="og:type" content="article" />
<meta property="article:published_time" content="2018-08-02T00:00:00+08:00" />
<script type="application/ld+json">
{"description":"以太坊 以太坊是一个基于交易的状态机。全球就这一台单机（但分布存在），以太坊中每个区块就对应一个区块，每产生一个区块，以太坊中的状态就会转换到下一个状态。这台单机主要由区块链组成，区块链上保存着状态和交易。 从创世区块开始，无尽的交易不断的刷新着系统当前状态，每产生一个区块就对当前状态做一次存储，随后存入区块头中。 以太坊中区块的结构 区块是由三大部分组成：区块头，叔块，交易列表。如下图所示。 区块头由15个字段组成。 叔块其实就是孤块，因以太坊出块速度很快平均十几秒就会打包生成一个块，所以矿工挖矿的竞争性很高，可能同时产出几个都合法的区块，以太坊为了一些安全性起见，允许竞争块也挂在到主链上，同时给与挖出这些孤块的矿工们少许奖励增加工作的公平性。这些孤块最多允许6个高度，这也是6个区块确认主链说法的来源。 交易列表，存储的是本区块中所有的交易内容。 看一下一个实际的区块信息： &quot;blocks&quot; : [ { &quot;blockHeader&quot; : { &quot;bloom&quot; : &quot;0x00000000000000000000000000000000000000000000000000000000000000000000000000000000000000000000000000000000000000000000000000000000000000000000000000000000000000000000000000000000000000000000000000000000000000000000000000000000000000000000000000000000000000000000000000000000000000000000000000000000000000000000000000000000000000000000000000000000000000000000000000000000000000000000000000000000000000000000000000000000000000000000000000000000000000000000000000000000000000000000000000000000000000000000000000000000&quot;, &quot;coinbase&quot; : &quot;0x3535353535353535353535353535353535353535&quot;, &quot;difficulty&quot; : &quot;0x020000&quot;, &quot;extraData&quot; : &quot;&quot;, &quot;gasLimit&quot; : &quot;0x05f5e100&quot;, &quot;gasUsed&quot; : &quot;0x014fa1&quot;, &quot;hash&quot; : &quot;0x39f4659b079e257df8fd7e699528531e97a6b8a442ca0d11200c4a2f7433c483&quot;, &quot;mixHash&quot; : &quot;0x7379f33af4ae2db7e293f808a165135d0b1a99572cc96fb9f7d17ef64a751969&quot;, &quot;nonce&quot; : &quot;0x8e08d7aabeee8773&quot;, &quot;number&quot; : &quot;0x01&quot;, &quot;parentHash&quot; : &quot;0xadbef3bf0b3b7b14f6e7b1a45d240ecc863543a279a86c23f60170e8e7a6bcc3&quot;, &quot;receiptTrie&quot; : &quot;0xb21660268480338c0cd0613358315359b619bd527d5850949c4863cddaec316b&quot;, &quot;stateRoot&quot; : &quot;0xde4ce9b5b2f88ab1680962c64281224b1743bdf94bd6a9e390ea779ff616c1f7&quot;, &quot;timestamp&quot; : &quot;0x03e8&quot;, &quot;transactionsTrie&quot; : &quot;0x56445ba866f3e41851154fb8700dcec8556a178f1833021e030b8a47b494769d&quot;, &quot;uncleHash&quot; : &quot;0x1dcc4de8dec75d7aab85b567b6ccd41ad312451b948a7413f0a142fd40d49347&quot; }, &quot;rlp&quot; : &quot;0xf90308f901f9a0adbef3bf0b3b7b14f6e7b1a45d240ecc863543a279a86c23f60170e8e7a6bcc3a01dcc4de8dec75d7aab85b567b6ccd41ad312451b948a7413f0a142fd40d49347943535353535353535353535353535353535353535a0de4ce9b5b2f88ab1680962c64281224b1743bdf94bd6a9e390ea779ff616c1f7a056445ba866f3e41851154fb8700dcec8556a178f1833021e030b8a47b494769da0b21660268480338c0cd0613358315359b619bd527d5850949c4863cddaec316bb901000000000000000000000000000000000000000000000000000000000000000000000000000000000000000000000000000000000000000000000000000000000000000000000000000000000000000000000000000000000000000000000000000000000000000000000000000000000000000000000000000000000000000000000000000000000000000000000000000000000000000000000000000000000000000000000000000000000000000000000000000000000000000000000000000000000000000000000000000000000000000000000000000000000000000000000000000000000000000000000000000000000000000000000000000000000083020000018405f5e10083014fa18203e880a07379f33af4ae2db7e293f808a165135d0b1a99572cc96fb9f7d17ef64a751969888e08d7aabeee8773f90108f90105460183030d4094c305c901078781c232a2a521c2af7980f8385ee980b8a430c8d1da000000000000000000000000000000000000000000000000000000000000002000000000000000000000000000000000000000000000000000000000000000600000000000000000000000000000000000000000000000000000000000000001000000000000000000000000000000000000000000000000000000000000000230644e72e131a029b85045b68181585d2833e84879b9709143e1f593f00000001ba021a28cc82b40931239f8653ffa5300e1a506c0ef7fb79a663772cafe6558ab44a075af23441f7f176a2770af41142c77b671391209b15d59144e7a1332179b5e14c0&quot;, &quot;transactions&quot; : [ { &quot;data&quot; : &quot;0x30c8d1da000000000000000000000000000000000000000000000000000000000000002000000000000000000000000000000000000000000000000000000000000000600000000000000000000000000000000000000000000000000000000000000001000000000000000000000000000000000000000000000000000000000000000230644e72e131a029b85045b68181585d2833e84879b9709143e1f593f0000000&quot;, &quot;gasLimit&quot; : &quot;0x030d40&quot;, &quot;gasPrice&quot; : &quot;0x01&quot;, &quot;nonce&quot; : &quot;0x46&quot;, &quot;r&quot; : &quot;0x21a28cc82b40931239f8653ffa5300e1a506c0ef7fb79a663772cafe6558ab44&quot;, &quot;s&quot; : &quot;0x75af23441f7f176a2770af41142c77b671391209b15d59144e7a1332179b5e14&quot;, &quot;to&quot; : &quot;0xc305c901078781c232a2a521c2af7980f8385ee9&quot;, &quot;v&quot; : &quot;0x1b&quot;, &quot;value&quot; : &quot;0x00&quot; } ], &quot;uncleHeaders&quot; : [] } ] 区块头结构 但是以太坊中每个区块的结构和比特币中每个区块的结构却不同，一个以太坊中区块的区块头(Block Header)结构如下图所示： 区块头中每个字段的意义如下： 名称 类型 意义 parentHash common.Hash 父区块的哈希值 UncleHash common.Hash 所有叔父区块列表的哈希值 Coinbase common.Address 打包该区块的矿工的地址，用于接收矿工费 Root common.Hash 状态树的根哈希值 TxHash common.Hash 交易树的根哈希值 ReceiptHash common.Hash 收据树的根哈希值 Bloom Bloom 交易收据日志组成的Bloom过滤器 Difficulty *Big.Int 本区块的难度 Number *Big.Int 本区块块号，区块号从0号开始算起 GasLimit uint64 本区块的Gas使用上限 GasUsed uint64 本区块中所有交易使用的Gas之和 Time *big.Int 区块产生的unix时间戳 Extra []byte 区块的附加数据 MixDigest common.Hash 哈希值，与Nonce的组合用于工作量计算 Nonce BlockNonce 区块产生时的随机值 和比特币中的区块链一样，以太坊中的区块链仍然使用了parentHash连接前一个区块，最终所有的区块形成了区块链。 这其中比较重要的三个字段是Root、TxHash和ReceiptHash三个哈希值。其中Root表示以太坊网络中全部有过转账交易的账户形成的Merkle partial Tree(MPT)的根哈希值，而TxHash是本区块中所有交易形成的merkle tree的根哈希值，ReceiptHash是本区块中所有收据信息构成的merkle tree 的哈希值。这其中涉及到的Merkle tree的相关概念可以参考比特币区块链中的数据结构，里面有merkle tree数据结构的介绍。接下来重点介绍Merkle Partial Tree。 Merkle Patricia Tree（默克尔-帕特里夏树） 比特币是基于交易的分布式账本，而以太坊是基于账户的分布式账本，相比于比特币，以太坊设计的更加复杂。以太坊中会对所有有过转账交易的账户都会建立一个用户状态树，每个运行以太坊客户端的节点都会在本地维护一个用户状态树，当有新的区块打包到区块链上之后，所有的以太坊节点(挖出区块的节点除外)的就会执行最新区块中的交易，对本地用户的状态树进行维护，得到新的用户状态树。用户状态树的信息并不保存在区块中，区块中仅仅保存了最新的状态树组成的根哈希值。 在以太坊中账户的地址是160bits的组织形式，即20字节，一般用16进制表示，用40位16进制的数据表示。基于账户的模式，只要使用地址和相应状态的映射即可。关于MPT的介绍，可以参见以太坊MPT原理，对于MPT的解释比较到位。 每次发布新的区块链时，每个存有状态树的节点就会根据区块中的交易更新对应的账户树，更新完毕之后生成新的账户树的根哈希值，最后类似于生成Merkle 树一样，根据修改后的账户状态获取账户树的根哈希值，这样就能保证每个节点中账户状态的一致性。状态树的变化如下图所示。 参考阅读： 以太坊的数据结构 以太坊MPT原理 阅读更多","@type":"BlogPosting","url":"http://0.0.0.0:4000/2018/08/02/%E4%BB%A5%E5%A4%AA%E5%9D%8A%E4%B8%AD%E5%8C%BA%E5%9D%97%E9%93%BE%E6%95%B0%E6%8D%AE%E7%BB%93%E6%9E%84.html","headline":"以太坊中区块链数据结构","dateModified":"2018-08-02T00:00:00+08:00","datePublished":"2018-08-02T00:00:00+08:00","mainEntityOfPage":{"@type":"WebPage","@id":"http://0.0.0.0:4000/2018/08/02/%E4%BB%A5%E5%A4%AA%E5%9D%8A%E4%B8%AD%E5%8C%BA%E5%9D%97%E9%93%BE%E6%95%B0%E6%8D%AE%E7%BB%93%E6%9E%84.html"},"@context":"http://schema.org"}</script>
<!-- End Jekyll SEO tag -->


    <link rel="stylesheet" href="/assets/css/style.css?v=">
    <script src="/assets/js/scale.fix.js"></script>
    <meta name="viewport" content="width=device-width, initial-scale=1, user-scalable=no">

    <!--[if lt IE 9]>
    <script src="//html5shiv.googlecode.com/svn/trunk/html5.js"></script>
    <![endif]-->
    
    <!-- Global site tag (gtag.js) - Google Analytics -->
    <script async src="https://www.googletagmanager.com/gtag/js?id=UA-123344652-1"></script>
    <script>
      window.dataLayer = window.dataLayer || [];
      function gtag(){dataLayer.push(arguments);}
      gtag('js', new Date());

      gtag('config', 'UA-123344652-1');
    </script>

  </head>
  <body>
    <div class="wrapper">
      <header  class="without-description" >
        <h1>以太坊中区块链数据结构</h1>
        
        
        <ul>
            <li><a href="https://blog.uzzz.org/" target="_blank"><strong>柚子社区<br/>(国际版)</strong></a></li>
            <li><a href="https://blog.uzzz.org.cn/" target="_blank"><strong>柚子社区<br/>(国内版)</strong></a></li>
        </ul>
        
        
        
      </header>
      <section>

      <div id="article_content" class="article_content clearfix csdn-tracking-statistics" data-pid="blog" data-mod="popu_307" data-dsm="post"> 
 <div class="markdown_views"> 
  <h3 id="以太坊">以太坊</h3> 
  <p></p>
  <p>以太坊是一个基于交易的状态机。全球就这一台单机（但分布存在），以太坊中每个区块就对应一个区块，每产生一个区块，以太坊中的状态就会转换到下一个状态。这台单机主要由区块链组成，区块链上保存着状态和交易。 <br> </p>
  <center>
   <img src="https://img-blog.csdn.net/20180603150951745" alt="">
   <br>
  </center>
  <p></p> 
  <br> 从创世区块开始，无尽的交易不断的刷新着系统当前状态，每产生一个区块就对当前状态做一次存储，随后存入区块头中。 
  <h3 id="以太坊中区块的结构">以太坊中区块的结构</h3> 
  <p>区块是由三大部分组成：区块头，叔块，交易列表。如下图所示。<br><span class="img-wrap"></span></p>
  <center>
   <img src="https://img-blog.csdn.net/20180603151011776" alt="">
  </center>
  <p></p> 
  <ul> 
   <li>区块头由15个字段组成。<br></li> 
   <li>叔块其实就是孤块，因以太坊出块速度很快平均十几秒就会打包生成一个块，所以矿工挖矿的竞争性很高，可能同时产出几个都合法的区块，以太坊为了一些安全性起见，允许竞争块也挂在到主链上，同时给与挖出这些孤块的矿工们少许奖励增加工作的公平性。这些孤块最多允许6个高度，这也是6个区块确认主链说法的来源。<br></li> 
   <li>交易列表，存储的是本区块中所有的交易内容。</li> 
   <li>看一下一个实际的区块信息：</li> 
  </ul> 
  <pre class="prettyprint"><code class="language-javascript hljs "><span class="hljs-string">"blocks"</span> : [
    {
    <span class="hljs-string">"blockHeader"</span> : {
    <span class="hljs-string">"bloom"</span> : <span class="hljs-string">"0x00000000000000000000000000000000000000000000000000000000000000000000000000000000000000000000000000000000000000000000000000000000000000000000000000000000000000000000000000000000000000000000000000000000000000000000000000000000000000000000000000000000000000000000000000000000000000000000000000000000000000000000000000000000000000000000000000000000000000000000000000000000000000000000000000000000000000000000000000000000000000000000000000000000000000000000000000000000000000000000000000000000000000000000000000000000"</span>,
    <span class="hljs-string">"coinbase"</span> : <span class="hljs-string">"0x3535353535353535353535353535353535353535"</span>,
    <span class="hljs-string">"difficulty"</span> : <span class="hljs-string">"0x020000"</span>,
    <span class="hljs-string">"extraData"</span> : <span class="hljs-string">""</span>,
    <span class="hljs-string">"gasLimit"</span> : <span class="hljs-string">"0x05f5e100"</span>,
    <span class="hljs-string">"gasUsed"</span> : <span class="hljs-string">"0x014fa1"</span>,
    <span class="hljs-string">"hash"</span> : <span class="hljs-string">"0x39f4659b079e257df8fd7e699528531e97a6b8a442ca0d11200c4a2f7433c483"</span>,
    <span class="hljs-string">"mixHash"</span> : <span class="hljs-string">"0x7379f33af4ae2db7e293f808a165135d0b1a99572cc96fb9f7d17ef64a751969"</span>,
    <span class="hljs-string">"nonce"</span> : <span class="hljs-string">"0x8e08d7aabeee8773"</span>,
    <span class="hljs-string">"number"</span> : <span class="hljs-string">"0x01"</span>,
    <span class="hljs-string">"parentHash"</span> : <span class="hljs-string">"0xadbef3bf0b3b7b14f6e7b1a45d240ecc863543a279a86c23f60170e8e7a6bcc3"</span>,
    <span class="hljs-string">"receiptTrie"</span> : <span class="hljs-string">"0xb21660268480338c0cd0613358315359b619bd527d5850949c4863cddaec316b"</span>,
    <span class="hljs-string">"stateRoot"</span> : <span class="hljs-string">"0xde4ce9b5b2f88ab1680962c64281224b1743bdf94bd6a9e390ea779ff616c1f7"</span>,
    <span class="hljs-string">"timestamp"</span> : <span class="hljs-string">"0x03e8"</span>,
    <span class="hljs-string">"transactionsTrie"</span> : <span class="hljs-string">"0x56445ba866f3e41851154fb8700dcec8556a178f1833021e030b8a47b494769d"</span>,
    <span class="hljs-string">"uncleHash"</span> : <span class="hljs-string">"0x1dcc4de8dec75d7aab85b567b6ccd41ad312451b948a7413f0a142fd40d49347"</span>
                },
    <span class="hljs-string">"rlp"</span> : <span class="hljs-string">"0xf90308f901f9a0adbef3bf0b3b7b14f6e7b1a45d240ecc863543a279a86c23f60170e8e7a6bcc3a01dcc4de8dec75d7aab85b567b6ccd41ad312451b948a7413f0a142fd40d49347943535353535353535353535353535353535353535a0de4ce9b5b2f88ab1680962c64281224b1743bdf94bd6a9e390ea779ff616c1f7a056445ba866f3e41851154fb8700dcec8556a178f1833021e030b8a47b494769da0b21660268480338c0cd0613358315359b619bd527d5850949c4863cddaec316bb901000000000000000000000000000000000000000000000000000000000000000000000000000000000000000000000000000000000000000000000000000000000000000000000000000000000000000000000000000000000000000000000000000000000000000000000000000000000000000000000000000000000000000000000000000000000000000000000000000000000000000000000000000000000000000000000000000000000000000000000000000000000000000000000000000000000000000000000000000000000000000000000000000000000000000000000000000000000000000000000000000000000000000000000000000000000083020000018405f5e10083014fa18203e880a07379f33af4ae2db7e293f808a165135d0b1a99572cc96fb9f7d17ef64a751969888e08d7aabeee8773f90108f90105460183030d4094c305c901078781c232a2a521c2af7980f8385ee980b8a430c8d1da000000000000000000000000000000000000000000000000000000000000002000000000000000000000000000000000000000000000000000000000000000600000000000000000000000000000000000000000000000000000000000000001000000000000000000000000000000000000000000000000000000000000000230644e72e131a029b85045b68181585d2833e84879b9709143e1f593f00000001ba021a28cc82b40931239f8653ffa5300e1a506c0ef7fb79a663772cafe6558ab44a075af23441f7f176a2770af41142c77b671391209b15d59144e7a1332179b5e14c0"</span>,
    <span class="hljs-string">"transactions"</span> : [
    {
        <span class="hljs-string">"data"</span> : <span class="hljs-string">"0x30c8d1da000000000000000000000000000000000000000000000000000000000000002000000000000000000000000000000000000000000000000000000000000000600000000000000000000000000000000000000000000000000000000000000001000000000000000000000000000000000000000000000000000000000000000230644e72e131a029b85045b68181585d2833e84879b9709143e1f593f0000000"</span>,
        <span class="hljs-string">"gasLimit"</span> : <span class="hljs-string">"0x030d40"</span>,
        <span class="hljs-string">"gasPrice"</span> : <span class="hljs-string">"0x01"</span>,
        <span class="hljs-string">"nonce"</span> : <span class="hljs-string">"0x46"</span>,
        <span class="hljs-string">"r"</span> : <span class="hljs-string">"0x21a28cc82b40931239f8653ffa5300e1a506c0ef7fb79a663772cafe6558ab44"</span>,
        <span class="hljs-string">"s"</span> : <span class="hljs-string">"0x75af23441f7f176a2770af41142c77b671391209b15d59144e7a1332179b5e14"</span>,
        <span class="hljs-string">"to"</span> : <span class="hljs-string">"0xc305c901078781c232a2a521c2af7980f8385ee9"</span>,
        <span class="hljs-string">"v"</span> : <span class="hljs-string">"0x1b"</span>,
        <span class="hljs-string">"value"</span> : <span class="hljs-string">"0x00"</span>
        }
        ],
       <span class="hljs-string">"uncleHeaders"</span> : []
            }
        ]</code></pre> 
  <h3 id="区块头结构">区块头结构</h3> 
  <p>但是以太坊中每个区块的结构和比特币中每个区块的结构却不同，一个以太坊中区块的区块头(Block Header)结构如下图所示： <br> </p>
  <center>
   <img src="https://img-blog.csdn.net/2018080120201127?watermark/2/text/aHR0cHM6Ly9ibG9nLmNzZG4ubmV0L3Q0NjQxNDcwNDE1MmFiYw==/font/5a6L5L2T/fontsize/400/fill/I0JBQkFCMA==/dissolve/70" alt="这里写图片描述" title="">
  </center>
  <p></p> 
  <p>区块头中每个字段的意义如下：</p> 
  <table> 
   <thead> 
    <tr> 
     <th>名称</th> 
     <th align="center">类型</th> 
     <th align="center">意义</th> 
    </tr> 
   </thead> 
   <tbody>
    <tr> 
     <td>parentHash</td> 
     <td align="center">common.Hash</td> 
     <td align="center">父区块的哈希值</td> 
    </tr> 
    <tr> 
     <td>UncleHash</td> 
     <td align="center">common.Hash</td> 
     <td align="center">所有叔父区块列表的哈希值</td> 
    </tr> 
    <tr> 
     <td>Coinbase</td> 
     <td align="center">common.Address</td> 
     <td align="center">打包该区块的矿工的地址，用于接收矿工费</td> 
    </tr> 
    <tr> 
     <td>Root</td> 
     <td align="center">common.Hash</td> 
     <td align="center">状态树的根哈希值</td> 
    </tr> 
    <tr> 
     <td>TxHash</td> 
     <td align="center">common.Hash</td> 
     <td align="center">交易树的根哈希值</td> 
    </tr> 
    <tr> 
     <td>ReceiptHash</td> 
     <td align="center">common.Hash</td> 
     <td align="center">收据树的根哈希值</td> 
    </tr> 
    <tr> 
     <td>Bloom</td> 
     <td align="center">Bloom</td> 
     <td align="center">交易收据日志组成的Bloom过滤器</td> 
    </tr> 
    <tr> 
     <td>Difficulty</td> 
     <td align="center">*Big.Int</td> 
     <td align="center">本区块的难度</td> 
    </tr> 
    <tr> 
     <td>Number</td> 
     <td align="center">*Big.Int</td> 
     <td align="center">本区块块号，区块号从0号开始算起</td> 
    </tr> 
    <tr> 
     <td>GasLimit</td> 
     <td align="center">uint64</td> 
     <td align="center">本区块的Gas使用上限</td> 
    </tr> 
    <tr> 
     <td>GasUsed</td> 
     <td align="center">uint64</td> 
     <td align="center">本区块中所有交易使用的Gas之和</td> 
    </tr> 
    <tr> 
     <td>Time</td> 
     <td align="center">*big.Int</td> 
     <td align="center">区块产生的unix时间戳</td> 
    </tr> 
    <tr> 
     <td>Extra</td> 
     <td align="center">[]byte</td> 
     <td align="center">区块的附加数据</td> 
    </tr> 
    <tr> 
     <td>MixDigest</td> 
     <td align="center">common.Hash</td> 
     <td align="center">哈希值，与Nonce的组合用于工作量计算</td> 
    </tr> 
    <tr> 
     <td>Nonce</td> 
     <td align="center">BlockNonce</td> 
     <td align="center">区块产生时的随机值</td> 
    </tr> 
   </tbody>
  </table> 
  <p>和比特币中的区块链一样，以太坊中的区块链仍然使用了parentHash连接前一个区块，最终所有的区块形成了区块链。 <br> 这其中比较重要的三个字段是Root、TxHash和ReceiptHash三个哈希值。其中Root表示以太坊网络中全部有过转账交易的账户形成的Merkle partial Tree(MPT)的根哈希值，而TxHash是本区块中所有交易形成的merkle tree的根哈希值，ReceiptHash是本区块中所有收据信息构成的merkle tree 的哈希值。这其中涉及到的Merkle tree的相关概念可以参考<a href="https://blog.csdn.net/t46414704152abc/article/details/81158410" rel="nofollow">比特币区块链中的数据结构</a>，里面有merkle tree数据结构的介绍。接下来重点介绍Merkle Partial Tree。</p> 
  <h3 id="merkle-patricia-tree默克尔-帕特里夏树">Merkle Patricia Tree（默克尔-帕特里夏树）</h3> 
  <p>比特币是基于交易的分布式账本，而以太坊是基于账户的分布式账本，相比于比特币，以太坊设计的更加复杂。以太坊中会对所有有过转账交易的账户都会建立一个<strong>用户状态树</strong>，每个运行以太坊客户端的节点都会在本地维护一个用户状态树，当有新的区块打包到区块链上之后，所有的以太坊节点(挖出区块的节点除外)的就会执行最新区块中的交易，对本地用户的状态树进行维护，得到新的用户状态树。用户状态树的信息并不保存在区块中，区块中仅仅保存了最新的状态树组成的根哈希值。 <br> 在以太坊中账户的地址是160bits的组织形式，即20字节，一般用16进制表示，用40位16进制的数据表示。基于账户的模式，只要使用地址和相应状态的映射即可。关于MPT的介绍，可以参见<a href="https://blog.csdn.net/itleaks/article/details/79992072" rel="nofollow">以太坊MPT原理</a>，对于MPT的解释比较到位。 <br> 每次发布新的区块链时，每个存有状态树的节点就会根据区块中的交易更新对应的账户树，更新完毕之后生成新的账户树的根哈希值，最后类似于生成Merkle 树一样，根据修改后的账户状态获取账户树的根哈希值，这样就能保证每个节点中账户状态的一致性。状态树的变化如下图所示。 <br> </p>
  <center>
   <img src="https://img-blog.csdn.net/20180802202001926?watermark/2/text/aHR0cHM6Ly9ibG9nLmNzZG4ubmV0L3Q0NjQxNDcwNDE1MmFiYw==/font/5a6L5L2T/fontsize/400/fill/I0JBQkFCMA==/dissolve/70" alt="这里写图片描述" title="">
  </center>
  <p></p> 
  <p>参考阅读： <br> <a href="https://zhuanlan.zhihu.com/p/30922425" rel="nofollow">以太坊的数据结构</a> <br> <a href="https://blog.csdn.net/itleaks/article/details/79992072" rel="nofollow">以太坊MPT原理</a></p> 
 </div> 
 <link rel="stylesheet" href="https://csdnimg.cn/release/phoenix/template/css/markdown_views-ea0013b516.css"> 
</div> 
<div class="hide-article-box text-center"> 
 <a class="btn btn-red-hollow" id="btn-readmore" data-track-view="{&quot;mod&quot;:&quot;popu_376&quot;,&quot;con&quot;:&quot;,https://blog.csdn.net/t46414704152abc/article/details/81348162,&quot;}" data-track-click="{&quot;mod&quot;:&quot;popu_376&quot;,&quot;con&quot;:&quot;,https://blog.csdn.net/t46414704152abc/article/details/81348162,&quot;}">阅读更多</a> 
</div>
      <br />
        <a href="https://blog.uzzz.org/">更多精彩内容</a>
      </section>
      
      <header style="right: 0;position: fixed;bottom: 60px;z-index: 100;background: none;border-bottom:none;">
        <ul style="display: block;">
          <li><a href="/" style="line-height: 40px;padding-top:0px;">回首页</a></li>
        </ul>
      </header>
      <header style="right: 0;position: fixed;bottom: 60px;z-index: 100;background: none;border-bottom:none;">
          <img src="https://blog.uzzz.org.cn/imgqcode.png" style="width:160px;" />
      </header>
      
      <header style="left: 0;position: fixed;bottom: 60px;z-index: 100;background: none;border-bottom:none;">
          <img src="https://blog.uzzz.org.cn/hou_imgqcode.png" style="width:160px;">
      </header>
    </div>
    
    <!--[if !IE]><script>fixScale(document);</script><![endif]-->

    <script>
    var _hmt = _hmt || [];
    (function() {
      var hm = document.createElement("script");
      hm.src = "https://hm.baidu.com/hm.js?ee64533f3c6a7a284cd39a37ee732c8b";
      var s = document.getElementsByTagName("script")[0]; 
      s.parentNode.insertBefore(hm, s);
    })();
    </script>
    
    <script>
    (function(){
        var bp = document.createElement('script');
        var curProtocol = window.location.protocol.split(':')[0];
        if (curProtocol === 'https') {
            bp.src = 'https://zz.bdstatic.com/linksubmit/push.js';
        }
        else {
            bp.src = 'http://push.zhanzhang.baidu.com/push.js';
        }
        var s = document.getElementsByTagName("script")[0];
        s.parentNode.insertBefore(bp, s);
    })();
    </script>

  </body>
</html>
